:020000040000FA
:020000001228C4
:040002000034003492
:08000800A3000308A4000B1D76
:100010000E280B1183308107A50AA214240883003F
:100020002308090083168601D43081008312A001C1
:10003000A101A201A5018B168B17A2185520051E40
:100040005228851C2B28051D3D281D28A218552047
:10005000851D1D2808002620FA302502031D2B28A7
:10006000A501A00A0A302002031C2B28A001A10A26
:100070000A3021020318A1012B282620FA3025027C
:10008000031D3D28A501A0032008FF3A031D3D28BC
:100090000930A000A1032108FF3A031D3D280930C3
:1000A000A1003D28A001A1011D28A210061E5D2867
:1000B00021086020EF3986000800200860205B28B6
:1000C0008207FE343834DD347D343B347734F73402
:0600D0003C34FF347F34D4
:02400E00703F01
:00000001FF
