:020000040000FA
:020000001228C4
:040002000034003492
:08000800A5000308A6000B1D72
:100010000E280B1183308107A414A70A2608830039
:1000200025080900831688010F308600D43081002E
:100030008312A001A101A201A301A4018B168B17B9
:10004000A4184D20061D4828061C27282028861C99
:100050002028A4184D2032302702031D2728A7018D
:10006000A00A0A302002031C2728A001A10A0A3096
:100070002102031C2728A101A20A0A302202031C24
:100080002728A201A30A0A3023020318A301272864
:10009000A001A101A201A3012028A410061F562837
:1000A000061323086E208800861708008613861E14
:1000B0005F28861222086E208800061708000613A3
:1000C000061E6828061221086E2088008616080081
:1000D000861220086E2088000616080082073F342A
:1000E00006345B344F3466346D347D3407347F34EA
:0200F0006F346B
:02400E00713F00
:00000001FF
