:020000040000FA
:020000001C28BA
:040002000034003492
:08000800A4000308A5000B1D74
:1000100018280B1106308107A60A10302602031893
:10002000A60122082602031C17280510182805140B
:100030002508830024080900831686010510D130A5
:10004000810083126430A000A1002310A310A2013C
:10005000A6018B168B175720851D3C2885183F2835
:1000600023182C28A00B2C282314A20A10302202BB
:100070000318A20157202C28A20157202C286430F5
:10008000A000231005195328A3182C28A10B2C28F5
:10009000A314A203103022020318502057202C284A
:1000A0000F30A20008006430A100A3102C28220801
:1000B0005B20860008008207FE343834DD347D344E
:1000C0003B347734F7343C34FF347F34BF34F3347B
:0800D000D634F934D73497341B
:02400E00703F01
:00000001FF
