:020000040000FA
:100000008316860183126430A0002210A1013020E3
:10001000851C1228051D1528851D21286430A00087
:1000200022100828A1013020082822180828A00B37
:1000300008282214A10A0A3021020318A101302045
:10004000082822180828A00B08282214A1030A3027
:10005000210203182D20302008280930A1000800B3
:1000600021083420860008008207FE343834DD344D
:0E0070007D343B347734F7343C34FF347F3436
:02007E0000344C
:0200800000344A
:02400E00703F01
:00000001FF
