:060000000A128A110E280D
:10000800FE00030EF4000408F5000A08F6000A12C0
:100018008A11AA2B0A128A11112883134330FD0072
:100028000430FE003130FF00373084000A128A1194
:1000380013240A128A110A128A115024F900C301E2
:10004800C401C501C601C701C801F701F801830150
:100058000A128A112F2883168501870188010A123E
:100068008A1147240A128A110A128A113D240A1297
:100078008A118B124330A0000A300A128A11922189
:100088000A128A114430A0000A300A128A119221F9
:100098000A128A11B101B201B301B401B0012A30C8
:1000A800300603195E280A128A11E8220A128A11F8
:1000B800B00053288B164330A0000B300A128A1167
:1000C80092210A128A114430A0000B300A128A11B8
:1000D80092210A128A11B5013508313E8400831332
:1000E8000008031DB7280A128A11E8220A128A1189
:1000F800AF003508313E84002F0880003508313EB6
:1001080084002A300006031990283508313E8400FF
:1001180023300006031D70283508313E8400800115
:100128000330A6000030A700C830A8000030A9009E
:100138000230AA000030AB000A128A115C230A12AE
:100148008A110130A6000030A700F430A800013061
:10015800A9000130AA000030AB000A128A115C2302
:100168000A128A1170283508031DBF288B124330E4
:10017800A0000B30C7284330A0003508FF3E313EB1
:1001880084000008D03E0A128A1192210A128A11AC
:100198004430A0003508313E840083130008D03E67
:1001A8000A128A1192210A128A110130AF002F080F
:1001B800B50702303502031C70280130A600003054
:1001C800A700E830A8000330A9000030AA00AB005F
:1001D8000A128A115C230A128A1185148B1643307D
:1001E800A0000B300A128A1192210A128A11443097
:1001F800A0000B300A128A1192210A128A11B60144
:100208003608333E840083130008031D3B290A1275
:100218008A11E8220A128A11AF003608333E840098
:100228002F0880003608333E84002A300006031960
:1002380024293608333E840023300006031D042990
:100248003608333E840080010130A6000030A70044
:10025800F430A8000130A9000130AA000030AB003A
:100268000A128A115C230A128A1185140429360895
:10027800031D43298B124330A0000B304B29433018
:10028800A0003608FF3E333E84000008D03E0A1224
:100298008A1192210A128A114430A0003608333E8E
:1002A800840083130008D03E0A128A1192210A1290
:1002B8008A110130AF002F08B60702303602031C3E
:1002C800042931083306031D7E2932083406031D2C
:1002D8007E290130A6000030A700C430A8000930EC
:1002E800A9000030AA00AB000A128A115C230A1286
:1002F8008A113D280130A6000030A700E830A80088
:100308000330A9000130AA000030AB000A128A119C
:100318005C230A128A11B301B401F128A10042300A
:100328002006031D9B290030A3000630AA2943306C
:100338002006031DA3290030A3000730AA29443052
:100348002006031D08000030A3000830A200132A6D
:10035800220884008317231C83133F308000080081
:10036800220884008317231C8313063080000800AA
:10037800220884008317231C83135B308000080045
:10038800220884008317231C83134F308000080041
:10039800220884008317231C83136630800008001A
:1003A800220884008317231C83136D308000080003
:1003B800220884008317231C83137D3080000800E3
:1003C800220884008317231C831307308000080049
:1003D800220884008317231C83137F3080000800C1
:1003E800220884008317231C83136F3080000800C1
:1003F800220884008317231C8313403080000800E0
:10040800220884008317231C831308308000080007
:10041800220884008317231C831380010800210805
:10042800003A0319AC29013A0319B429033A03190C
:10043800BC29013A0319C429073A0319CC29013AFE
:100448000319D429033A0319DC29013A0319E429C9
:100458000F3A0319EC29013A0319F429033A03194D
:10046800FC29013A0319042A073A03190C2A3C2AE1
:100478000800F10042307006031D462A0030F300E0
:100488000630552A43307006031D4E2A0030F3000B
:100498000730552A44307006031D08000030F30069
:1004A8000830F200BE2A720884008317731C831375
:1004B8003F3080000800720884008317731C831380
:1004C800063080000800720884008317731C8313A9
:1004D8005B3080000800720884008317731C831344
:1004E8004F3080000800720884008317731C831340
:1004F800663080000800720884008317731C831319
:100508006D3080000800720884008317731C831301
:100518007D3080000800720884008317731C8313E1
:10052800073080000800720884008317731C831347
:100538007F3080000800720884008317731C8313BF
:100548006F3080000800720884008317731C8313BF
:10055800403080000800720884008317731C8313DE
:10056800083080000800720884008317731C831306
:10057800800108007108003A0319572A013A031943
:100588005F2A033A0319672A013A03196F2A073ABF
:100598000319772A013A03197F2A033A0319872A8C
:1005A800013A03198F2A0F3A0319972A013A0319B6
:1005B8009F2A033A0319A72A013A0319AF2A073ACF
:1005C8000319B72AE72A08008601061A861E272B70
:1005D800061F272BE92A06108615861DF72A83127F
:1005E80003130615FA2A831203130611061D002B9E
:1005F800831203138614032B831203138610061A1F
:10060800861E082B061B0A2BC8012C2B86100614E5
:10061800061A861E112B061B142BC801C80A2C2B80
:1006280006118614061A861E1B2B061B1D2B02306C
:10063800252B86110615061A861E242B061B272B2A
:100648000330C8002C2B061A861EEF2A061FEF2A35
:10065800061E861E332B061F332BC701492B061A8D
:10066800861A3B2B061F3B2BC701C70A492B061AC4
:10067800861E422B061B422B0230482B061A861E6A
:10068800492B061F492B0330C700061A861E492B23
:10069800061F492B0330A00048080A128A1120249B
:1006A800373E4707A4002408840083130008080085
:1006B800AE018E2B05142908A1002808A0000A12F3
:1006C8008A11EF230A128A110510812B8514290833
:1006D800A1002808A0000A128A11EF230A128A1121
:1006E8008510812B05152908A1002808A0000A12E9
:1006F8008A11EF230A128A1105112908A100280876
:10070800A0000A128A11EF230A128A110130AC00E4
:100718002C08AE072E08AC00AD0127082D02031DDA
:10072800972B26082C02031808002B08003A0319F7
:100738009E2B8A2B2A08003A03195E2B013A0319CB
:100748006A2B033A0319762B8A2B8A2B0B1DE62B6F
:100758000B113D308312031381000130F707031892
:10076800F80A0030F80700307802263003197702BB
:10077800031CE62BF701F80179080319CF2B433046
:10078800F0000B300A128A113D220A128A114430F5
:10079800F0000B30DA2B4330F0000C300A128A11CB
:1007A8003D220A128A114430F0000C300A128A11D4
:1007B8003D220A128A117908031DE42B0130E52B2A
:1007C8000030F90076088A0075088400740E8300EA
:1007D800FE0E7E0E0900A201A30121082302031DBB
:1007E800F72B2008220203180800A401A5010130F4
:1007F800A4070318A50A0030A50701302502F43024
:1008080003192402031CFB2B0130A2070318A30AB7
:100818000030A307F12B7E088A007F0882000F248E
:100828000A128A118000840A04087D06031900341C
:10083800FF0A0319FE0A132CA300A201231C282C6B
:100848002008A1002108A2070310A00D0310A30C83
:100858002308031D222C2208080031343234333493
:100868003434353436343734383439342A3430343F
:100878002334073081003D30831281008B160B1121
:100888008B170B170800F03086007F308312A0000A
:0A08980020088316810508000134D2
:02400E007A3FF7
:00000001FF
